:020000040800F2
:108000005804002045810008C1810008BD81000896
:10801000BF810008B98100086983000800000000E2
:10802000000000000000000000000000E5810008E2
:10803000BB81000800000000E3810008E781000820
:108040005F8100085F8100085F8100085F81000890
:108050005F8100085F8100085F8100085F81000880
:108060005F8100085F8100085F8100085F81000870
:108070005F8100085F8100085F8100085F81000860
:108080005F8100085F8100085F8100085F81000850
:108090005F8100085F8100085F8100085F81000840
:1080A0005F8100085F8100085F8100085F81000830
:1080B0005F8100085F8100085F8100085F81000820
:1080C0005F8100085F8100085F8100085F81000810
:1080D0005F8100085F8100085F8100085F81000800
:1080E0005F8100085F8100085F8100085F810008F0
:1080F0005F8100085F8100085F8100085F810008E0
:108100005F8100085F8100085F8100085F810008CF
:10811000018300085F8100085F8100085F8100081B
:108120005F8100085F8100085F8100085F810008AF
:10813000DFF80CD000F02EF800480047098A00084C
:10814000580400200648804706480047FEE7FEE73F
:10815000FEE7FEE7FEE7FEE7FEE7FEE7FEE7FEE7F7
:10816000ED8100083181000830B50B460146002042
:108170002022012409E021FA02F59D4205D303FAE9
:1081800002F5491B04FA02F52844151EA2F101026A
:10819000F1DC30BD064C074D06E0E06840F001031D
:1081A00094E8070098471034AC42F6D3FFF7C4FFB9
:1081B000A0920008C0920008FEE77047FEE7FEE7C5
:1081C00070470907090E002806DA00F00F0000F1D9
:1081D000E02080F8141D704700F1E02080F80014C2
:1081E00070477047704700F091BA00007CB5414875
:1081F000016841F4700101603F4C206840F00100CB
:10820000206020688007FCD560680025C0F38100ED
:10821000022857D1019502E00198401C0190019875
:108220005028F9D360680090009820F0F00000908A
:10823000009840F08000009000986060019502E096
:108240000198401C019001985028F9D36068009073
:10825000009820F0F0000090009840F0900000900E
:1082600000986060019502E00198401C019001981F
:108270005028F9D360680090009820F0F00000903A
:10828000009840F0A000009000986060019502E026
:108290000198401C019001985028F9D36068009023
:1082A000009820F0F0000090009840F0B00000909E
:1082B00000986060019502E00198401C01900198CF
:1082C0005028F9D3606820F003006060C82000F0F7
:1082D0000EFA20680949084020604FF41F00A06092
:1082E000206820F4802020606560E562BDE87C4065
:1082F00000F0CABD88ED00E000100240FFFFF6FE6E
:1083000070B5154D154C2946204600F08CFF00280D
:108310001ED02946204600F086FF204600F004FFCC
:108320000F4D0221284600F0CEFA0E4C192810D02D
:1083300078B10221284600F0F3F9192202212846DB
:1083400000F0B0FA0221284600F0FCF9002020706D
:1083500070BD0120207070BD04030400004C00407B
:108360000004024000000020FEE700000FB4054BAF
:1083700010B503A9044A029800F018F810BC5DF883
:1083800014FB0000E58800080C00002002E008C88B
:10839000121F08C1002AFAD170477047002001E07F
:1083A00001C1121F002AFBD1704700002DE9FF4FC9
:1083B0008BB088460546002606E025280BD0DDE96F
:1083C0000D1290476D1C761C28780028F5D10FB04F
:1083D0003046BDE8F08F0024A146A2460122AE49F6
:1083E00000E0044315F8013F203B02FA03F0084285
:1083F000F7D128782A2810D06FF02F022878A0F122
:108400003001092915D809EB890102EB410144F03B
:10841000020400EB01096D1CF0E758F8041B5FEA49
:10842000010903D544F40054C9F1000944F00204E1
:108430006D1C28782E2817D115F8010F44F004047C
:108440002A280ED06FF02F022878A0F130010929D8
:108450000AD80AEB8A0102EB410100EB010A6D1C0C
:10846000F2E758F804AB6D1C28786C280FD006DCB6
:108470004C2817D068280DD06A2814D104E074283D
:1084800010D07A280FD10DE044F400140AE044F42F
:10849000801401E044F440146978814202D104F56B
:1084A00080146D1C6D1C2878692865D006DC0028B6
:1084B0008DD0632827D0642806D15DE06E2808D0CF
:1084C00073282AD0752877D0DDE90D129047761CE5
:1084D000E0E0C4F30250022809D003280DD0D8F8F8
:1084E000001004280DD00E6008F10408D2E0D8F87E
:1084F0000010F217C1E90062F6E7D8F800100E800C
:10850000F2E70E70F0E718F8041B8DF80010002059
:108510008DF80100EB46012003E058F804BB4FF052
:10852000FF3061074FF0000701D40AE07F1C574578
:108530000DDA8742FADB1BF807100029F6D106E0B6
:108540007F1C8742FCDB1BF807100029F8D1DDE90E
:108550000D23A9EB07008146214600F0B1F8304415
:10856000C61904E0DDE90D121BF8010B90477F1ED0
:10857000F8D22146484688E058F8040BC4F302516B
:108580004FF00A0B032900D100B2042900D140B2F8
:10859000002802DA40422D2102E0210505D52B21D9
:1085A0008DF82410012104E006E0E10710D020211D
:1085B000F6E708AF089113E058F8040BC4F3025132
:1085C0004FF00A0B032900D180B2042900D1C0B2B8
:1085D0000021EEE75946FFF7C7FD303107F8011DCE
:1085E0000028F7D1ADEB070000F1200B600702D5A2
:1085F00024F4803401E04FF0010ADA4502DDAAEBF1
:108600000B0000E00020824600EB0B0108980144BB
:10861000A9EB01000A90E00306D4DDE90D23214611
:108620000A9800F04DF806444FF0000908E009A947
:1086300011F80900DDE90D12904709F10109761CD6
:1086400008998945F3DBE0030CD5DDE90D232146CC
:108650000A9800F035F8064404E0DDE90D123020F8
:108660009047761CBAF10001AAF1010AF5DC05E099
:10867000DDE90D1217F8010B9047761CBBF10001E4
:10868000ABF1010BF4DC0A982146DDE90D2300F083
:1086900005F806446D1C97E6092801002DE9F04114
:1086A000044600251E461746880404D405E03946D2
:1086B0002020B0476D1C641EF9D52846BDE8F08126
:1086C0002DE9F041044600251E469046C80301D519
:1086D000302700E02027880404D505E041463846CD
:1086E000B0476D1C641EF9D52846BDE8F08108B579
:1086F0000021009100EB800002E00099491C0091EC
:108700000099B1EB400FF8D308BD000003480168A1
:10871000002902D00168491E016070470400002052
:1087200070B505460C462146284600F0A1F840B138
:1087300004EB840005EB8000816821F00101816079
:1087400070BDFEE770B505460C462146284600F090
:108750008FF840B104EB840005EB8000816841F0A4
:108760000101816070BDFEE770B505460C462146EB
:10877000284600F07DF840B104EB840005EB800052
:10878000816821F02001816070BDFEE770B505466B
:108790000C462146284600F06BF840B104EB8400FB
:1087A00005EB8000816841F02001816070BDFEE72B
:1087B00070B504460D462946204600F059F898B198
:1087C00005EB850004EB8002906820F001009060CA
:1087D00000209060D060106150616068AA000F2195
:1087E00091400843606070BDFEE770B506460D46D7
:1087F00014462946304600F03BF848B305EB8500A7
:1088000006EB800022680261A1684161218A89B279
:10881000C160816821F47C52E3686168194363692F
:10882000134319438160217E012912D0816821F010
:1088300040018160617E012910D0816821F08001B2
:108840008160A17E79B1816841F01001816070BDC5
:10885000FEE7816841F040018160EBE7816841F00B
:1088600080018160EDE7816821F01001816070BDB9
:1088700002460120034B9A4202D1042900D900206C
:10888000704700000004024000280AD00021016067
:10889000416001768160C16041760161817641610C
:1088A0007047FEE770B506460C4615462146304631
:1088B000FFF7DEFF30B104EB840106EB8101A8B2C3
:1088C000C86070BDFEE770B505460C4621462846D7
:1088D000FFF7CEFF28B104EB840005EB8000C068F1
:1088E00070BDFEE770B50446064DA1B2284600F003
:1088F0001FFC0621284600F07FFC0028F9D0204606
:1089000070BD0000003801402DE9F04301F00F0474
:10891000CD0602D5042A18D0144300224FF00F0CC4
:10892000012707FA02F51D401AD0D0F800909600F2
:108930000CFA06F829EA080904FA06F848EA0908D0
:10894000282908D0482908D008E044F00304C26B65
:108950001A43C263E1E7456100E00561C0F80080A9
:10896000521C92B2082ADCD3082207FA02F51D40F5
:1089700016D0D0F80490A2F10806B6000CFA06F85A
:1089800029EA080904FA06F848EA0908282902D061
:10899000482902D002E0456100E00561C0F804808A
:1089A000521C92B2102AE0D3BDE8F083F0B5154C0A
:1089B000002801DAE36900E06368C0F30346420D72
:1089C000120185B2C0F301579540032F07D0C202B0
:1089D0000CD50322B240934343F0E06209E023F058
:1089E000E062636823F0E063636002E0AB4343F05E
:1089F000E06201B12A43002801DAE261F0BD626061
:108A0000F0BD0000000001400EB562B600F03EFA75
:108A100000F0A0FA00F060FA00F018FB00F0D2FAC3
:108A2000154800F0DBFB154800F0D8FB14A0FFF759
:108A30009DFC194D194C28780028FCD00020287086
:108A400016482F3000F05CF990B1207D18B114A0C9
:108A5000FFF78CFCEFE721896089E288CDE90021EE
:108A60000290A3886288218814A0FFF77FFCE2E7C8
:108A70001FA0FFF77BFCDEE700380140004C004000
:108A80005342555320506172736572205374617262
:108A9000742E2E2E0D0A0000000000201000002071
:108AA0005B5741524E5D204661696C73616665207B
:108AB000416374697665210D0A0000004348313A2C
:108AC000253464204348323A253464204348333AFD
:108AD000253464204348343A253464207C205331C3
:108AE0003A2534642053323A2534640D0A000000DC
:108AF00053796E63696E672E2E2E0D0A00000000FA
:108B000070B505460E460023002423480168C1F3D2
:108B10000221072932D00168C1F3022106292FD092
:108B20000168C1F3022105292DD00168C1F302219A
:108B300004292BD00068C0F30220032829D04FF469
:108B4000A06000F02BF802230224C3F10400864049
:108B5000C4F104010F20C84010403043000105F16A
:108B6000E02181F8000405F01F010120884069110F
:108B7000890001F1E021C1F8000170BD0424E4E79F
:108B800001230324E1E702230224DEE70323012477
:108B9000DBE70423D9E700000CED00E002490843BD
:108BA00002490860704700000000FA050CED00E083
:108BB00070B588B00346002035A104AE91E83400BA
:108BC000C96834C6079133A106C9CDE9021231A1A3
:108BD00006C9CDE90012324C6168C1F38101314A06
:108BE000002930D001292ED002292CD1616801F44E
:108BF0008031B1F5803F11D052106168C1F38341DB
:108C000065682D0101D541F0100165686D0001D541
:108C100041F020010F290ED2891C13E0E16A01F016
:108C2000804101B1204A616801F40031B1F5003F93
:108C3000E3D15208E1E7A1F10F052F2D01D8491C1E
:108C400000E03F214A436168C1F3031104AD695C50
:108C500022FA01F16568C5F3022502AE755D21FABD
:108C600005F56468C4F3C2241DF8044021FA04F435
:108C700043B1012B08D0022B08D0032B00D1204692
:108C800008B070BD1046FBE70846F9E72846F7E74D
:108C900000000000000000000102030406070809AC
:108CA0000010024000127A00006CDC02054901EB62
:108CB00090110A6800F01F030120984002430A60E7
:108CC0007047000000100240054901EB90110A684E
:108CD00000F01F030120984082430A6070470000A3
:108CE00000100240054901EB90110A6800F01F03D3
:108CF0000120984002430A607047000000100240C3
:108D000001780F2901D000207047017E41788278D8
:108D100041EA0221C1F30A0229490A808278C37814
:108D2000D20842EA4312C2F30A024A80C2780379A7
:108D3000920942EA8302437942EA8322C2F30A0299
:108D40008A8042798379520842EAC312C2F30A0246
:108D5000CA808279C379120942EA0312C2F30A0275
:108D60000A81C279037AD20942EA4302437A42EA8B
:108D70004322C2F30A024A81427A837A920842EA83
:108D80008312C2F30A028A81827AC37A520942EAC2
:108D9000C302CA81027B437B42EA0322C2F30A0276
:108DA0000A82427B837BD20842EA4312C2F30A0260
:108DB0004A82C07DC0F3C0000875012070470000E2
:108DC0001000002008B500212B48026842F48032D0
:108DD00002604FF6FF73491C026802F400320AB9C0
:108DE0009942F8D10168890300D4FEE7C16941F0D6
:108DF0008051C16121490A6842F440420A604268D8
:108E0000426042684260426842F480624260426866
:108E100022F440324260426842F44032426042688A
:108E2000174B1A4042604268164B1A434260026870
:108E300042F08072026002689201FCD50A6842F436
:108E400080320A604A68D203FCD50A6842F40032D4
:108E50000A604A689203FCD541680091009921F0AC
:108E600003010091009941F00201009100994160D5
:108E700041680907FCD508BD0010024000700040A1
:108E8000FFFFC3B700003408FFF79CBF70B511485F
:108E90004FF47A710068B0FBF1F1491E4FF0FF35D5
:108EA000B1F1807F01D301210BE04FF0E02461613B
:108EB0000F212846FFF785F90020A06107202061D7
:108EC000002101B1FEE72846BDE870400021FFF710
:108ED00078B900000800002010B540F20360FFF7E9
:108EE000E5FE40F20E60FFF7E1FE4FF4C060FFF7D1
:108EF000DDFE01210420FFF759FD144C402303221D
:108F000018212046FFF700FD80230322042120467C
:108F1000FFF7FAFC0E4C204600F00EF94FF4E13159
:108F2000204600F0C9F80421204600F09DF90821F0
:108F3000204600F0ABF90621204600F054F9204607
:108F4000BDE81040402100F03FB90000000C014096
:108F50000038014010B588B04FF4A060FFF7A6FEBE
:108F60000521154800F03FF901A8FFF78DFC1248D4
:108F7000001D01901148039000208DF81E0019215A
:108F800005918DF81C0001218DF81D1002900490B0
:108F90004FF4405006900A4C01AA04212046FFF7E6
:108FA00024FC04212046FFF7DFFB04212046FFF7C5
:108FB000C9FB08B010BD00000038014026000020A9
:108FC0000000024070B540F20460FFF76FFE40F20F
:108FD0001370FFF76BFE1A4D4FF480642346032293
:108FE00018212846FFF790FC63000322042128463D
:108FF000FFF78AFC134D284600F09EF812492846D8
:1090000000F05AF82146284600F026F9E1002846EB
:1090100000F034F90421284600F026F909491431FA
:109020000A6842F040020A604FF44171284600F09D
:10903000F0F8BDE87040002211463420FFF760BD13
:1090400000100140004C0040A086010010B588B01F
:1090500040F20150FFF72AFE144C02212046FFF790
:10906000A7FB01A8FFF710FC1148019011480390DD
:1090700000218DF81E10192205928DF81C10012276
:109080008DF81D20029104914FF44050069001AAE2
:1090900002212046FFF7A9FB02212046FFF776FBBD
:1090A00002212046FFF74EFB08B010BD000402402D
:1090B000044C00403F00002070B504460D460020DF
:1090C000174BE21A1E159C4216D008DC154962188F
:1090D0000ED0B24217D10220FFF76AFD13E0B24270
:1090E0000ED0B2F56C4F0ED10320FFF761FD0AE000
:1090F0000220FFF75DFD06E00220FFF759FD02E0C8
:109100000220FFF755FD00EB5500B0FBF5F04FF6E0
:10911000F071014000F00F021143A16070BD00002A
:10912000004C004000BCFFBF4068C0F3080070471F
:10913000C1F308014160704710B5214A811A131527
:10914000904228D00EDC1F4940181AD0984236D1E0
:1091500040F212442046FFF7C5FD2046BDE810400E
:10916000FFF7B2BD994220D0B1F56C4F27D140F244
:109170000E342046FFF7B6FD2046BDE81040FFF74D
:10918000A3BD40F211442046FFF7ACFD2046BDE8E8
:109190001040FFF799BD40F213442046FFF7A2FDAF
:1091A0002046BDE81040FFF78FBD40F21444204632
:1091B000FFF798FD2046BDE81040FFF785BD10BDC4
:1091C000004C004000BCFFBF426922F040024261F7
:1091D000426901F040010A4342617047C16841F4AD
:1091E0000051C160704701F01F0301229A4000EB5B
:1091F0009110D2430260704700EB9110006801F0BB
:109200001F0201219140084201D001207047002037
:10921000704700EB9110026801F01F030121994093
:109220000A430260704730B5C1F38912825801F0D9
:109230001F04012505FA04F31A4000EB9150006861
:10924000C1F3044105FA01F31840002802D00AB125
:10925000012030BD002030BDC26822F4C062C2606F
:10926000C2680A43C2607047C26822F00402C2604A
:10927000C26801F004010A43C2607047026922F427
:109280004052026102690A4302617047C26822F0DB
:109290000802C260C26801F008010A43C260704758
:1092A000C092000800000020100000008C8300081D
:1092B000D092000810000020480400009C830008A1
:1092C0000000000000000000000E27070000000062
:04000005080081313D
:00000001FF
