:020000040800F2
:1000000068080020D1010008930200088F02000850
:10001000910200088B020008D103000800000000D4
:10002000000000000000000000000000B70200080F
:100030008D02000800000000B5020008B9020008A7
:10004000EB010008EB010008EB010008EB010008E0
:10005000EB010008EB010008EB010008EB010008D0
:10006000EB010008EB010008EB010008EB010008C0
:10007000EB010008EB010008EB010008EB010008B0
:10008000EB010008EB010008EB010008EB010008A0
:10009000EB010008EB010008EB010008EB01000890
:1000A000EB010008EB010008EB010008EB01000880
:1000B000EB010008EB010008EB010008EB01000870
:1000C000EB010008EB010008EB010008EB01000860
:1000D000EB010008EB010008EB010008EB01000850
:1000E000EB010008EB010008EB010008EB01000840
:1000F000EB010008EB010008EB010008EB01000830
:10010000EB010008EB010008EB010008EB0100081F
:10011000EB010008EB010008EB010008EB0100080F
:10012000EB010008EB010008EB010008EB010008FF
:1001300000F002F800F03CF80AA090E8000C8244BD
:100140008344AAF10107DA4501D100F031F8AFF29A
:10015000090EBAE80F0013F0010F18BFFB1A43F0A5
:1001600001031847C0080000E0080000103A24BF4F
:1001700078C878C1FAD8520724BF30C830C144BF0C
:1001800004680C607047000000230024002500264E
:10019000103A28BF78C1FBD8520728BF30C148BFEA
:1001A0000B6070471FB500F037FC1FBD10B510BDC8
:1001B00000F031F81146FFF7F5FF00F0CDF900F03F
:1001C0004FF803B4FFF7F2FF03BC00F057F800004C
:1001D0000948804709480047FEE7FEE7FEE7FEE7DB
:1001E000FEE7FEE7FEE7FEE7FEE7FEE70448054917
:1001F000054A064B70470000BD02000831010008A7
:1002000068000020680800206804002068040020BE
:10021000704770477047754600F02CF8AE460500F1
:100220006946534620F00700854618B020B5FFF711
:10023000DDFFBDE820404FF000064FF000074FF013
:1002400000084FF0000B21F00701AC46ACE8C009F4
:10025000ACE8C009ACE8C009ACE8C0098D467047FD
:1002600010B50446AFF300802046BDE81040FFF70C
:10027000A8BF00000048704708000020014918206E
:10028000ABBEFEE7260002007047FEE77047FEE7C0
:10029000FEE770470907090E002806DA00F00F0094
:1002A00000F1E02080F8141D704700F1E02080F894
:1002B000001470477047704700F0C4B87CB54148DF
:1002C000016841F4700101603F4C206840F001007A
:1002D000206020688007FCD560680025C0F381009D
:1002E000022857D1019502E00198401C0190019825
:1002F0005028F9D360680090009820F0F00000903A
:10030000009840F08000009000986060019502E045
:100310000198401C019001985028F9D36068009022
:10032000009820F0F0000090009840F090000090BD
:1003300000986060019502E00198401C01900198CE
:100340005028F9D360680090009820F0F0000090E9
:10035000009840F0A000009000986060019502E0D5
:100360000198401C019001985028F9D360680090D2
:10037000009820F0F0000090009840F0B00000904D
:1003800000986060019502E00198401C019001987E
:100390005028F9D3606820F003006060C82000F0A6
:1003A00018F820680949084020604FF41F00A06039
:1003B000206820F4802020606560E562BDE87C4014
:1003C00000F00CBA88ED00E000100240FFFFF6FEDE
:1003D000FEE708B50021009100EB800002E00099E3
:1003E000491C00910099B1EB400FF8D308BD000003
:1003F00070B511480468456810482040B0F1005FAE
:1004000018D172B60E4800F099FA4FF0E0210020A2
:10041000086148618861411E820002F1E022C2F851
:100420008012401C0828F7DB84F30888AC46BDE83E
:100430007040604770BD0000008000080000FE2F83
:100440000038014003480168002902D00168491EB4
:1004500001607047000000202DE9F04301F00F0417
:10046000CD0602D5042A18D0144300224FF00F0CF9
:10047000012707FA02F51D401AD0D0F80090960027
:100480000CFA06F829EA080904FA06F848EA090805
:10049000282908D0482908D008E044F00304C26B9A
:1004A0001A43C263E1E7456100E00561C0F80080DE
:1004B000521C92B2082ADCD3082207FA02F51D402A
:1004C00016D0D0F80490A2F10806B6000CFA06F88F
:1004D00029EA080904FA06F848EA0908282902D096
:1004E000482902D002E0456100E00561C0F80480BF
:1004F000521C92B2102AE0D3BDE8F083F0B5154C3F
:10050000002801DAE36900E06368C0F30346420DA6
:10051000120185B2C0F301579540032F07D0C202E4
:100520000CD50322B240934343F0E06209E023F08C
:10053000E062636823F0E063636002E0AB4343F092
:10054000E06201B12A43002801DAE261F0BD626095
:10055000F0BD00000000014000F042F900F07AF91F
:1005600008A000F063F9114C0621204600F033FA90
:100570000028F9D04FF40041080300F019F8FFF704
:1005800037FFFEE7526561647920746F204A756D0C
:100590007020546F204150502061742030783038E2
:1005A0003030383030300D0A000000000038014093
:1005B000034A1140014303480160BFF34F8F704766
:1005C00080FFFF1F08ED00E070B588B003460020F3
:1005D00035A104AE91E83400C96834C6079133A14F
:1005E00006C9CDE9021231A106C9CDE90012324C8B
:1005F0006168C1F38101314A002930D001292ED030
:1006000002292CD1616801F48031B1F5803F11D00D
:1006100052106168C1F3834165682D0101D541F035
:10062000100165686D0001D541F020010F290ED23F
:10063000891C13E0E16A01F0804101B1204A616840
:1006400001F40031B1F5003FE3D15208E1E7A1F137
:100650000F052F2D01D8491C00E03F214A43616856
:10066000C1F3031104AD695C22FA01F16568C5F3B9
:10067000022502AE755D21FA05F56468C4F3C22453
:100680001DF8044021FA04F443B1012B08D0022BD9
:1006900008D0032B00D1204608B070BD1046FBE700
:1006A0000846F9E72846F7E70000000000000000D0
:1006B00001020304060708090010024000127A0034
:1006C000006CDC02054901EB90110A6800F01F0381
:1006D0000120984002430A60704700000010024069
:1006E000054901EB90110A6800F01F0301209840B2
:1006F00082430A607047000000100240054901EB88
:1007000090110A6800F01F030120984002430A601C
:10071000704700000010024008B500212B48026815
:1007200042F4803202604FF6FF73491C026802F403
:1007300000320AB99942F8D10168890300D4FEE772
:10074000C16941F08051C16121490A6842F44042C7
:100750000A604268426042684260426842F48062D5
:100760004260426822F440324260426842F44032C1
:1007700042604268174B1A4042604268164B1A4367
:100780004260026842F08072026002689201FCD509
:100790000A6842F480320A604A68D203FCD50A68CB
:1007A00042F400320A604A689203FCD54168009125
:1007B000009921F003010091009941F0020100919C
:1007C0000099416041680907FCD508BD001002404E
:1007D00000700040FFFFC3B700003408FFF79CBF64
:1007E00070B511484FF47A710068B0FBF1F1491E01
:1007F0004FF0FF35B1F1807F01D301210BE04FF0C5
:10080000E02461610F212846FFF744FD0020A0612C
:1008100007202061002101B1FEE72846BDE87040B5
:100820000021FFF737BD00000400002070B504462A
:10083000074D09E0284600F07DF80721284600F022
:10084000CAF80028F9D0641C21780029F2D170BDC3
:100850000038014010B540F20360FFF733FF40F26B
:100860000E60FFF72FFF4FF4C060FFF72BFF012151
:100870000420FFF743FE114C402303221821204699
:10088000FFF7EAFD8023032204212046FFF7E4FD61
:100890000B4C204600F052F84FF4E131204600F0B6
:1008A00011F80421204600F0A3F80821204600F0AA
:1008B000A9F82046BDE8104000F088B8000C0140BF
:1008C0000038014070B504460D460020174BE21A6F
:1008D0001E159C4216D008DC154962180ED0B24293
:1008E00017D10220FFF770FE13E0B2420ED0B2F52E
:1008F0006C4F0ED10320FFF767FE0AE00220FFF7DE
:1009000063FE06E00220FFF75FFE02E00220FFF731
:100910005BFE00EB5500B0FBF5F04FF6F0710140C7
:1009200000F00F021143A16070BD0000004C0040B8
:1009300000BCFFBFC1F308014160704710B5214AF8
:10094000811A1315904228D00EDC1F4940181AD086
:10095000984236D140F212442046FFF7CFFE20469F
:10096000BDE81040FFF7BCBE994220D0B1F56C4FF6
:1009700027D140F20E342046FFF7C0FE2046BDE8E6
:100980001040FFF7ADBE40F211442046FFF7B6FE1F
:100990002046BDE81040FFF7A3BE40F213442046B6
:1009A000FFF7ACFE2046BDE81040FFF799BE40F2CD
:1009B00014442046FFF7A2FE2046BDE81040FFF792
:1009C0008FBE10BD004C004000BCFFBFC16841F4A9
:1009D0000051C160704700EB9110006801F01F02E8
:1009E00001219140084201D001207047002070474A
:1009F000C26822F00402C260C26801F004010A4326
:100A0000C2607047C26822F00802C260C26801F08A
:100A100008010A43C26070474FF04070E1EE100ACF
:100A200070470000440A0008000000200800000091
:100A30006C0100084C0A0008080000206008000053
:0C0A40008801000800000000000E2707DD
:0400000508000131BD
:00000001FF
